:1000000000308A007A2900000000193084000008BE
:100010000319182801308D008C018C0B0D288D0BD5
:100020000C2848308C008C0B13280000800B0A2809
:1000300000348830840002308000080838390138E4
:10004000880000308D000808C7390D04880064302E
:10005000910020309200831686108312861402309D
:100060009300C83099000520930B31288316861021
:100070008312861002309300C83099000520930B3C
:100080003C28831686108312861402309300C830F1
:1000900099000520930B472883168610831286103B
:1000A00002309300C83099000520930B5228831624
:1000B00086108312861402309300C8309900052000
:1000C000930B5D28831686108312861082290130D7
:1000D0009400930002308C008C1D7628073081013B
:1000E000813084000008C0390F38800064008130FE
:1000F00084000008C0390C0480004430810083165D
:10010000061400308312061801301402031D9128D2
:10011000013093079408031D902801309400912822
:10012000940101088C0044300C0203187F2806302B
:100130001302031D9F288316861083128614043031
:100140001302031CFE288316061383120617831658
:10015000061183120615023098009630990005208A
:10016000980BAD2891019701960195010830150271
:100170000319C62802309900052008150819BE2861
:10018000090896070318970A950AB628970C960C43
:10019000970C960C970C960C1F3097050430160799
:1001A000980000300318013E17079900D3309A00D9
:1001B00016089A0200309B001708031C9B039B0241
:1001C0001A088C001B088E008E0C8C0C8E0C8C0C6C
:1001D0008E0C8C0C1F308E050E088F000C08180733
:1001E00091008316861083128610831606138312DD
:1001F0000613831606118312061166298316061349
:100200008312061785308C008C0B042908150819F9
:100210000729090895000310950C85308C008C0B7C
:100220000F2908150819122909088C0003108C0CD5
:100230000C08950711081502031823298316861048
:10024000831286102729831686108312861483163C
:1002500006148312061C02291508110203185029DE
:1002600085308C008C0B32290815081935290908AE
:1002700095000310950C85308C008C0B3D290815DA
:100280000819402909088C0003108C0C0C089507EC
:100290001530150203183029831686108312861034
:1002A00007308C008C1D5C2907308101813084006F
:1002B0000008C0390F3880006400813084000008D5
:1002C000C0390C0480000130810092018729203060
:1002D0001202031D6D2979297929920A01308100C2
:1002E00020301202031D7829831606138312061389
:1002F00079298A29840183018830840084000730A9
:1003000080001928831606148312061C672801082A
:0803100003196729822963002B
:02400E00F93F78
:00000001FF
;PIC16C71
