:1000000000308A00722900000000193084000008C6
:100010000319182801308D008C018C0B0D288D0BD5
:100020000C2848308C008C0B13280000800B0A2809
:1000300000348830840002308000080838390138E4
:10004000880000308D000808C7390D04880064302E
:10005000910020309200831686108312861402309D
:100060009300C83099000520930B31288316861021
:100070008312861002309300C83099000520930B3C
:100080003C28831686108312861402309300C830F1
:1000900099000520930B472883168610831286103B
:1000A00002309300C83099000520930B5228831624
:1000B00086108312861402309300C8309900052000
:1000C000930B5D2883168610831286107A290130DF
:1000D0009400930002308C008C1D7628073081013B
:1000E000813084000008C0390F38800064008130FE
:1000F00084000008C0390C0480004430810083165D
:10010000061400308312061801301402031D9128D2
:10011000013093079408031D902801309400912822
:10012000940101088C0044300C0203187F2806302B
:100130001302031D9F288316861083128614043031
:100140001302031CF6288316061383120617831660
:1001500006118312061502309800C8309900052058
:10016000980BAD2891019701960195010830150271
:100170000319C62802309900052008150819BE2861
:10018000090896070318970A950AB628970C960C43
:10019000970C960C970C960C1F309705D33098004F
:1001A00016089802003099001708031C9903990259
:1001B00018088C0019088E008E0C8C0C8E0C8C0C80
:1001C0008E0C8C0C1F308E050E088F000C08160745
:1001D00091008316861083128610831606138312ED
:1001E000061383160611831206115E298316061361
:1001F0008312061785308C008C0BFC280815081913
:10020000FF28090895000310950C85308C008C0B95
:100210000729081508190A2909088C0003108C0CF5
:100220000C0895071108150203181B298316861060
:10023000831286101F298316861083128614831654
:1002400006148312061CFA281508110203184829FF
:1002500085308C008C0B2A29081508192D290908CE
:1002600095000310950C85308C008C0B35290815F2
:100270000819382909088C0003108C0C0C08950704
:10028000153015020318282983168610831286104C
:1002900007308C008C1D5429073081018130840087
:1002A0000008C0390F3880006400813084000008E5
:1002B000C0390C0480000130810092017F29203078
:1002C0001202031D652971297129920A01308100EA
:1002D00020301202031D70298316061383120613A1
:1002E00071298229840183018830840084000730C9
:1002F00080001928831606148312061C672801083B
:0803000003195F297A2963004B
:02400E00F93F78
:00000001FF
;PIC16C71
